:03000000020030CB
:10003000759000900200D280D2812080043180012E
:100040003A1145013A75900A75A0A475B09071ED0A
:1000500075B08071ED75B0F871ED75B08271ED75A8
:10006000B09271ED75B09971ED75B0B071ED75B07C
:10007000A471ED75B0F971ED75B04075A0F975B06A
:100080009071ED75B08071ED75B0F871ED75B0825D
:1000900071ED75B09271ED75B09971ED75B0B0718B
:1000A000ED75B0A471ED75B0F971ED75B04075A046
:1000B0004075B09071ED75B08071ED75B0F871ED6F
:1000C00075B08271ED75B09271ED75B09971ED7585
:1000D000B0B071ED75B0A471ED75B0F971ED75B09A
:1000E0004075902175A0A475B09071ED75B08071C8
:1000F000ED75B0F871ED75B08271ED75B09271ED7E
:1001000075B09971ED75B0B071ED75B0A471ED7504
:10011000B0F971ED75B04075A0F975B09071ED75DD
:10012000B08071ED75B0F871ED75B08271ED75B09C
:100130009271ED75B09971ED75B0B071ED75B0A4B7
:1001400071ED75B0F971ED75B04075A04075B09066
:1001500071ED75B08071ED75B0F871ED75B08271AB
:10016000ED75B09271ED75B09971ED75B0B071ED3E
:1001700075B0A471ED75B0F971ED75B04002003045
:1001800075900A75A09275B09071ED75B08071EDA3
:1001900075B0F871ED75B08271ED75B09271ED7555
:0C01A000B09971ED75B0B071ED75B0A4B0
:1001AC0071ED75B0F971ED75B04075A09975B090A1
:1001BC0071ED75B08071ED75B0F871ED75B082713F
:1001CC00ED75B09271ED75B09971ED75B0B071EDD2
:1001DC0075B0A471ED75B0F971ED75B04075A0B046
:1001EC0075B09071ED75B08071ED75B0F871ED75FD
:1001FC00B08271ED75B09271ED75B09971ED75B00D
:10020C00B071ED75B0A471ED75B0F971ED75B040CC
:10021C0075A0A475B09071ED75B08071ED75B0F8E6
:10022C0071ED75B08271ED75B09271ED75B099711B
:10023C00ED75B0B071ED75B0A471ED75B0F971EDEF
:10024C0075B04075A0F975B09071ED75B08071ED19
:10025C0075B0F871ED75B08271ED75B09271ED7588
:10026C00B09971ED75B0B071ED75B0A471ED75B05C
:10027C00F971ED75B04075A04075B09071ED75B029
:10028C008071ED75B0F871ED75B08271ED75B0924D
:10029C0071ED75B09971ED75B0B071ED75B0A4716B
:1002AC00ED75B0F971ED75B04075902175A0927532
:1002BC00B09071ED75B08071ED75B0F871ED75B0F1
:1002CC008271ED75B09271ED75B09971ED75B0B03C
:1002DC0071ED75B0A471ED75B0F971ED75B0407537
:1002EC00A09975B09071ED75B08071ED75B0F87125
:1002FC00ED75B08271ED75B09271ED75B09971EDCF
:10030C0075B0B071ED75B0A471ED75B0F971ED7596
:0F031C00B04075A0B075B09071ED75B08071ED07
:10032B0075B0F871ED75B08271ED75B09271ED75B8
:10033B00B09971ED75B0B071ED75B0A471ED75B08C
:10034B00F971ED75B04075A0A475B09071ED75B0F5
:10035B008071ED75B0F871ED75B08271ED75B0927D
:10036B0071ED75B09971ED75B0B071ED75B0A4719B
:10037B00ED75B0F971ED75B04075A0F975B0907170
:10038B00ED75B08071ED75B0F871ED75B08271EDF2
:10039B0075B09271ED75B09971ED75B0B071ED7579
:1003AB00B0A471ED75B0F971ED75B04075A04075E5
:1003BB00B09071ED75B08071ED75B0F871ED75B0F1
:1003CB008271ED75B09271ED75B09971ED75B0B03C
:1003DB0071ED75B0A471ED75B0F971ED75B04002AA
:1003EB00003020810F61F27C0A7D207EFFDEFEDD76
:1003FB00FADCF6227C327D207EFFDEFEDDFADCF6B7
:01040B0022CE
:00000001FF
